{
  "contractName": "ManagmentDappContract",
  "abi": [
    {
      "inputs": [],
      "stateMutability": "nonpayable",
      "type": "constructor"
    },
    {
      "anonymous": false,
      "inputs": [
        {
          "indexed": false,
          "internalType": "uint256",
          "name": "_id",
          "type": "uint256"
        },
        {
          "indexed": false,
          "internalType": "uint256",
          "name": "_age",
          "type": "uint256"
        },
        {
          "indexed": false,
          "internalType": "uint256",
          "name": "_level",
          "type": "uint256"
        },
        {
          "indexed": false,
          "internalType": "address",
          "name": "_address",
          "type": "address"
        },
        {
          "indexed": false,
          "internalType": "string",
          "name": "_fullName",
          "type": "string"
        },
        {
          "indexed": false,
          "internalType": "string",
          "name": "_gender",
          "type": "string"
        },
        {
          "indexed": false,
          "internalType": "string",
          "name": "_role",
          "type": "string"
        },
        {
          "indexed": false,
          "internalType": "bool",
          "name": "_isWorker",
          "type": "bool"
        },
        {
          "indexed": false,
          "internalType": "bool",
          "name": "_isRegistered",
          "type": "bool"
        }
      ],
      "name": "personAdded",
      "type": "event"
    },
    {
      "anonymous": false,
      "inputs": [
        {
          "indexed": false,
          "internalType": "uint256",
          "name": "_id",
          "type": "uint256"
        }
      ],
      "name": "workedFired",
      "type": "event"
    },
    {
      "anonymous": false,
      "inputs": [
        {
          "indexed": false,
          "internalType": "uint256",
          "name": "_id",
          "type": "uint256"
        }
      ],
      "name": "workerChangedRole",
      "type": "event"
    },
    {
      "anonymous": false,
      "inputs": [
        {
          "indexed": false,
          "internalType": "uint256",
          "name": "_id",
          "type": "uint256"
        }
      ],
      "name": "workerHired",
      "type": "event"
    },
    {
      "anonymous": false,
      "inputs": [
        {
          "indexed": false,
          "internalType": "uint256",
          "name": "_id",
          "type": "uint256"
        }
      ],
      "name": "workerPromoted",
      "type": "event"
    },
    {
      "inputs": [
        {
          "internalType": "address",
          "name": "",
          "type": "address"
        }
      ],
      "name": "addressToId",
      "outputs": [
        {
          "internalType": "uint256",
          "name": "",
          "type": "uint256"
        }
      ],
      "stateMutability": "view",
      "type": "function",
      "constant": true
    },
    {
      "inputs": [
        {
          "internalType": "uint256",
          "name": "",
          "type": "uint256"
        }
      ],
      "name": "pendingWorkers",
      "outputs": [
        {
          "internalType": "uint256",
          "name": "id",
          "type": "uint256"
        },
        {
          "internalType": "uint256",
          "name": "age",
          "type": "uint256"
        },
        {
          "internalType": "uint256",
          "name": "level",
          "type": "uint256"
        },
        {
          "internalType": "address",
          "name": "addr",
          "type": "address"
        },
        {
          "internalType": "string",
          "name": "fullName",
          "type": "string"
        },
        {
          "internalType": "string",
          "name": "gender",
          "type": "string"
        },
        {
          "internalType": "string",
          "name": "role",
          "type": "string"
        },
        {
          "internalType": "bool",
          "name": "isWorker",
          "type": "bool"
        },
        {
          "internalType": "bool",
          "name": "isRegistered",
          "type": "bool"
        }
      ],
      "stateMutability": "view",
      "type": "function",
      "constant": true
    },
    {
      "inputs": [],
      "name": "pendingWorkersCount",
      "outputs": [
        {
          "internalType": "uint256",
          "name": "",
          "type": "uint256"
        }
      ],
      "stateMutability": "view",
      "type": "function",
      "constant": true
    },
    {
      "inputs": [],
      "name": "personCount",
      "outputs": [
        {
          "internalType": "uint256",
          "name": "",
          "type": "uint256"
        }
      ],
      "stateMutability": "view",
      "type": "function",
      "constant": true
    },
    {
      "inputs": [
        {
          "internalType": "uint256",
          "name": "",
          "type": "uint256"
        }
      ],
      "name": "persons",
      "outputs": [
        {
          "internalType": "uint256",
          "name": "id",
          "type": "uint256"
        },
        {
          "internalType": "uint256",
          "name": "age",
          "type": "uint256"
        },
        {
          "internalType": "uint256",
          "name": "level",
          "type": "uint256"
        },
        {
          "internalType": "address",
          "name": "addr",
          "type": "address"
        },
        {
          "internalType": "string",
          "name": "fullName",
          "type": "string"
        },
        {
          "internalType": "string",
          "name": "gender",
          "type": "string"
        },
        {
          "internalType": "string",
          "name": "role",
          "type": "string"
        },
        {
          "internalType": "bool",
          "name": "isWorker",
          "type": "bool"
        },
        {
          "internalType": "bool",
          "name": "isRegistered",
          "type": "bool"
        }
      ],
      "stateMutability": "view",
      "type": "function",
      "constant": true
    },
    {
      "inputs": [],
      "name": "workersCount",
      "outputs": [
        {
          "internalType": "uint256",
          "name": "",
          "type": "uint256"
        }
      ],
      "stateMutability": "view",
      "type": "function",
      "constant": true
    },
    {
      "inputs": [
        {
          "internalType": "uint256",
          "name": "_age",
          "type": "uint256"
        },
        {
          "internalType": "string",
          "name": "_fullName",
          "type": "string"
        },
        {
          "internalType": "string",
          "name": "_gender",
          "type": "string"
        },
        {
          "internalType": "string",
          "name": "_role",
          "type": "string"
        }
      ],
      "name": "register",
      "outputs": [],
      "stateMutability": "nonpayable",
      "type": "function"
    },
    {
      "inputs": [
        {
          "internalType": "uint256",
          "name": "_id",
          "type": "uint256"
        }
      ],
      "name": "hireWorker",
      "outputs": [],
      "stateMutability": "nonpayable",
      "type": "function"
    },
    {
      "inputs": [
        {
          "internalType": "uint256",
          "name": "_id",
          "type": "uint256"
        }
      ],
      "name": "firedWorker",
      "outputs": [],
      "stateMutability": "nonpayable",
      "type": "function"
    },
    {
      "inputs": [
        {
          "internalType": "uint256",
          "name": "_id",
          "type": "uint256"
        },
        {
          "internalType": "string",
          "name": "_newRole",
          "type": "string"
        }
      ],
      "name": "changeRoleOfWorker",
      "outputs": [],
      "stateMutability": "nonpayable",
      "type": "function"
    },
    {
      "inputs": [
        {
          "internalType": "uint256",
          "name": "_id",
          "type": "uint256"
        }
      ],
      "name": "promoteWorker",
      "outputs": [],
      "stateMutability": "nonpayable",
      "type": "function"
    },
    {
      "inputs": [],
      "name": "getIsRegistered",
      "outputs": [
        {
          "internalType": "bool",
          "name": "",
          "type": "bool"
        }
      ],
      "stateMutability": "view",
      "type": "function",
      "constant": true
    },
    {
      "inputs": [],
      "name": "getAddressToId",
      "outputs": [
        {
          "internalType": "uint256",
          "name": "",
          "type": "uint256"
        }
      ],
      "stateMutability": "view",
      "type": "function",
      "constant": true
    },
    {
      "inputs": [],
      "name": "getPendingWorkersCount",
      "outputs": [
        {
          "internalType": "uint256",
          "name": "",
          "type": "uint256"
        }
      ],
      "stateMutability": "view",
      "type": "function",
      "constant": true
    },
    {
      "inputs": [],
      "name": "getWorkersCount",
      "outputs": [
        {
          "internalType": "uint256",
          "name": "",
          "type": "uint256"
        }
      ],
      "stateMutability": "view",
      "type": "function",
      "constant": true
    }
  ],
  "bytecode": "0x608060405260006001556000600255600060035534801561001f57600080fd5b50336000806101000a81548173ffffffffffffffffffffffffffffffffffffffff021916908373ffffffffffffffffffffffffffffffffffffffff160217905550611a728061006f6000396000f3fe608060405234801561001057600080fd5b50600436106100f55760003560e01c806383a50db611610097578063a2f9eac611610066578063a2f9eac614610254578063be18cf7f1461028c578063c6ced32b146102aa578063cb0e0d7d146102c8576100f5565b806383a50db6146101e05780638431f090146101fc57806385c45b6b1461021a57806387971c3914610236576100f5565b80635c8ea64f116100d35780635c8ea64f146101505780635dc2e6661461016c57806373d4ca94146101a457806378495bf8146101c2576100f5565b80630627e2c3146100fa5780633d59a0e2146101185780633f3fe3a514610134575b600080fd5b6101026102f8565b60405161010f91906112b1565b60405180910390f35b610132600480360381019061012d9190611452565b610302565b005b61014e6004803603810190610149919061150d565b610622565b005b61016a6004803603810190610165919061153a565b6106da565b005b6101866004803603810190610181919061150d565b610761565b60405161019b9998979695949392919061167a565b60405180910390f35b6101ac610981565b6040516101b9919061171c565b60405180910390f35b6101ca610a9e565b6040516101d791906112b1565b60405180910390f35b6101fa60048036038101906101f5919061150d565b610aa4565b005b610204610d73565b60405161021191906112b1565b60405180910390f35b610234600480360381019061022f919061150d565b610dba565b005b61023e610eda565b60405161024b91906112b1565b60405180910390f35b61026e6004803603810190610269919061150d565b610ee0565b6040516102839998979695949392919061167a565b60405180910390f35b610294611100565b6040516102a191906112b1565b60405180910390f35b6102b2611106565b6040516102bf91906112b1565b60405180910390f35b6102e260048036038101906102dd9190611763565b611110565b6040516102ef91906112b1565b60405180910390f35b6000600254905090565b3373ffffffffffffffffffffffffffffffffffffffff1660066000600560003373ffffffffffffffffffffffffffffffffffffffff1673ffffffffffffffffffffffffffffffffffffffff16815260200190815260200160002054815260200190815260200160002060030160009054906101000a900473ffffffffffffffffffffffffffffffffffffffff1673ffffffffffffffffffffffffffffffffffffffff1614156103e6576040517f08c379a00000000000000000000000000000000000000000000000000000000081526004016103dd906117dc565b60405180910390fd5b6040518061012001604052806001548152602001858152602001600181526020013373ffffffffffffffffffffffffffffffffffffffff1681526020018481526020018381526020018281526020016000151581526020016001151581525060066000600154815260200190815260200160002060008201518160000155602082015181600101556040820151816002015560608201518160030160006101000a81548173ffffffffffffffffffffffffffffffffffffffff021916908373ffffffffffffffffffffffffffffffffffffffff16021790555060808201518160040190805190602001906104db929190611128565b5060a08201518160050190805190602001906104f8929190611128565b5060c0820151816006019080519060200190610515929190611128565b5060e08201518160070160006101000a81548160ff0219169083151502179055506101008201518160070160016101000a81548160ff0219169083151502179055509050507f1aa984a30282caec6e71b4306782a0b05ea5b017f0d5855a316b5c0d4fc2a658600154856000338787876000600160405161059e99989796959493929190611841565b60405180910390a1600154600560003373ffffffffffffffffffffffffffffffffffffffff1673ffffffffffffffffffffffffffffffffffffffff16815260200190815260200160002081905550600160008154809291906105ff90611912565b91905055506002600081548092919061061790611912565b919050555050505050565b3373ffffffffffffffffffffffffffffffffffffffff1660008054906101000a900473ffffffffffffffffffffffffffffffffffffffff1673ffffffffffffffffffffffffffffffffffffffff161461067a57600080fd5b6002600460008381526020019081526020016000206002015410156106d757600160046000838152602001908152602001600020600201546106bc919061195b565b60046000838152602001908152602001600020600201819055505b50565b3373ffffffffffffffffffffffffffffffffffffffff1660008054906101000a900473ffffffffffffffffffffffffffffffffffffffff1673ffffffffffffffffffffffffffffffffffffffff161461073257600080fd5b8060046000848152602001908152602001600020600601908051906020019061075c929190611128565b505050565b60066020528060005260406000206000915090508060000154908060010154908060020154908060030160009054906101000a900473ffffffffffffffffffffffffffffffffffffffff16908060040180546107bc906119e0565b80601f01602080910402602001604051908101604052809291908181526020018280546107e8906119e0565b80156108355780601f1061080a57610100808354040283529160200191610835565b820191906000526020600020905b81548152906001019060200180831161081857829003601f168201915b50505050509080600501805461084a906119e0565b80601f0160208091040260200160405190810160405280929190818152602001828054610876906119e0565b80156108c35780601f10610898576101008083540402835291602001916108c3565b820191906000526020600020905b8154815290600101906020018083116108a657829003601f168201915b5050505050908060060180546108d8906119e0565b80601f0160208091040260200160405190810160405280929190818152602001828054610904906119e0565b80156109515780601f1061092657610100808354040283529160200191610951565b820191906000526020600020905b81548152906001019060200180831161093457829003601f168201915b5050505050908060070160009054906101000a900460ff16908060070160019054906101000a900460ff16905089565b60003373ffffffffffffffffffffffffffffffffffffffff1660066000600560003373ffffffffffffffffffffffffffffffffffffffff1673ffffffffffffffffffffffffffffffffffffffff16815260200190815260200160002054815260200190815260200160002060030160009054906101000a900473ffffffffffffffffffffffffffffffffffffffff1673ffffffffffffffffffffffffffffffffffffffff161415610a965760066000600560003373ffffffffffffffffffffffffffffffffffffffff1673ffffffffffffffffffffffffffffffffffffffff16815260200190815260200160002054815260200190815260200160002060070160019054906101000a900460ff169050610a9b565b600090505b90565b60015481565b3373ffffffffffffffffffffffffffffffffffffffff1660008054906101000a900473ffffffffffffffffffffffffffffffffffffffff1673ffffffffffffffffffffffffffffffffffffffff1614610afc57600080fd5b60016006600083815260200190815260200160002060070160006101000a81548160ff02191690831515021790555060066000828152602001908152602001600020600460008381526020019081526020016000206000820154816000015560018201548160010155600282015481600201556003820160009054906101000a900473ffffffffffffffffffffffffffffffffffffffff168160030160006101000a81548173ffffffffffffffffffffffffffffffffffffffff021916908373ffffffffffffffffffffffffffffffffffffffff1602179055506004820181600401908054610bea906119e0565b610bf59291906111ae565b506005820181600501908054610c0a906119e0565b610c159291906111ae565b506006820181600601908054610c2a906119e0565b610c359291906111ae565b506007820160009054906101000a900460ff168160070160006101000a81548160ff0219169083151502179055506007820160019054906101000a900460ff168160070160016101000a81548160ff02191690831515021790555090505060066000828152602001908152602001600020600080820160009055600182016000905560028201600090556003820160006101000a81549073ffffffffffffffffffffffffffffffffffffffff0219169055600482016000610cf6919061123b565b600582016000610d06919061123b565b600682016000610d16919061123b565b6007820160006101000a81549060ff02191690556007820160016101000a81549060ff0219169055505060026000815480929190610d5390611a12565b919050555060036000815480929190610d6b90611912565b919050555050565b6000600560003373ffffffffffffffffffffffffffffffffffffffff1673ffffffffffffffffffffffffffffffffffffffff16815260200190815260200160002054905090565b3373ffffffffffffffffffffffffffffffffffffffff1660008054906101000a900473ffffffffffffffffffffffffffffffffffffffff1673ffffffffffffffffffffffffffffffffffffffff1614610e1257600080fd5b60046000828152602001908152602001600020600080820160009055600182016000905560028201600090556003820160006101000a81549073ffffffffffffffffffffffffffffffffffffffff0219169055600482016000610e75919061123b565b600582016000610e85919061123b565b600682016000610e95919061123b565b6007820160006101000a81549060ff02191690556007820160016101000a81549060ff0219169055505060036000815480929190610ed290611a12565b919050555050565b60025481565b60046020528060005260406000206000915090508060000154908060010154908060020154908060030160009054906101000a900473ffffffffffffffffffffffffffffffffffffffff1690806004018054610f3b906119e0565b80601f0160208091040260200160405190810160405280929190818152602001828054610f67906119e0565b8015610fb45780601f10610f8957610100808354040283529160200191610fb4565b820191906000526020600020905b815481529060010190602001808311610f9757829003601f168201915b505050505090806005018054610fc9906119e0565b80601f0160208091040260200160405190810160405280929190818152602001828054610ff5906119e0565b80156110425780601f1061101757610100808354040283529160200191611042565b820191906000526020600020905b81548152906001019060200180831161102557829003601f168201915b505050505090806006018054611057906119e0565b80601f0160208091040260200160405190810160405280929190818152602001828054611083906119e0565b80156110d05780601f106110a5576101008083540402835291602001916110d0565b820191906000526020600020905b8154815290600101906020018083116110b357829003601f168201915b5050505050908060070160009054906101000a900460ff16908060070160019054906101000a900460ff16905089565b60035481565b6000600354905090565b60056020528060005260406000206000915090505481565b828054611134906119e0565b90600052602060002090601f016020900481019282611156576000855561119d565b82601f1061116f57805160ff191683800117855561119d565b8280016001018555821561119d579182015b8281111561119c578251825591602001919060010190611181565b5b5090506111aa919061127b565b5090565b8280546111ba906119e0565b90600052602060002090601f0160209004810192826111dc576000855561122a565b82601f106111ed578054855561122a565b8280016001018555821561122a57600052602060002091601f016020900482015b8281111561122957825482559160010191906001019061120e565b5b509050611237919061127b565b5090565b508054611247906119e0565b6000825580601f106112595750611278565b601f016020900490600052602060002090810190611277919061127b565b5b50565b5b8082111561129457600081600090555060010161127c565b5090565b6000819050919050565b6112ab81611298565b82525050565b60006020820190506112c660008301846112a2565b92915050565b6000604051905090565b600080fd5b600080fd5b6112e981611298565b81146112f457600080fd5b50565b600081359050611306816112e0565b92915050565b600080fd5b600080fd5b6000601f19601f8301169050919050565b7f4e487b7100000000000000000000000000000000000000000000000000000000600052604160045260246000fd5b61135f82611316565b810181811067ffffffffffffffff8211171561137e5761137d611327565b5b80604052505050565b60006113916112cc565b905061139d8282611356565b919050565b600067ffffffffffffffff8211156113bd576113bc611327565b5b6113c682611316565b9050602081019050919050565b82818337600083830152505050565b60006113f56113f0846113a2565b611387565b90508281526020810184848401111561141157611410611311565b5b61141c8482856113d3565b509392505050565b600082601f8301126114395761143861130c565b5b81356114498482602086016113e2565b91505092915050565b6000806000806080858703121561146c5761146b6112d6565b5b600061147a878288016112f7565b945050602085013567ffffffffffffffff81111561149b5761149a6112db565b5b6114a787828801611424565b935050604085013567ffffffffffffffff8111156114c8576114c76112db565b5b6114d487828801611424565b925050606085013567ffffffffffffffff8111156114f5576114f46112db565b5b61150187828801611424565b91505092959194509250565b600060208284031215611523576115226112d6565b5b6000611531848285016112f7565b91505092915050565b60008060408385031215611551576115506112d6565b5b600061155f858286016112f7565b925050602083013567ffffffffffffffff8111156115805761157f6112db565b5b61158c85828601611424565b9150509250929050565b600073ffffffffffffffffffffffffffffffffffffffff82169050919050565b60006115c182611596565b9050919050565b6115d1816115b6565b82525050565b600081519050919050565b600082825260208201905092915050565b60005b838110156116115780820151818401526020810190506115f6565b83811115611620576000848401525b50505050565b6000611631826115d7565b61163b81856115e2565b935061164b8185602086016115f3565b61165481611316565b840191505092915050565b60008115159050919050565b6116748161165f565b82525050565b600061012082019050611690600083018c6112a2565b61169d602083018b6112a2565b6116aa604083018a6112a2565b6116b760608301896115c8565b81810360808301526116c98188611626565b905081810360a08301526116dd8187611626565b905081810360c08301526116f18186611626565b905061170060e083018561166b565b61170e61010083018461166b565b9a9950505050505050505050565b6000602082019050611731600083018461166b565b92915050565b611740816115b6565b811461174b57600080fd5b50565b60008135905061175d81611737565b92915050565b600060208284031215611779576117786112d6565b5b60006117878482850161174e565b91505092915050565b7f5573657220616c72656164792072656769737465726564000000000000000000600082015250565b60006117c66017836115e2565b91506117d182611790565b602082019050919050565b600060208201905081810360008301526117f5816117b9565b9050919050565b6000819050919050565b6000819050919050565b600061182b611826611821846117fc565b611806565b611298565b9050919050565b61183b81611810565b82525050565b600061012082019050611857600083018c6112a2565b611864602083018b6112a2565b611871604083018a611832565b61187e60608301896115c8565b81810360808301526118908188611626565b905081810360a08301526118a48187611626565b905081810360c08301526118b88186611626565b90506118c760e083018561166b565b6118d561010083018461166b565b9a9950505050505050505050565b7f4e487b7100000000000000000000000000000000000000000000000000000000600052601160045260246000fd5b600061191d82611298565b91507fffffffffffffffffffffffffffffffffffffffffffffffffffffffffffffffff8214156119505761194f6118e3565b5b600182019050919050565b600061196682611298565b915061197183611298565b9250827fffffffffffffffffffffffffffffffffffffffffffffffffffffffffffffffff038211156119a6576119a56118e3565b5b828201905092915050565b7f4e487b7100000000000000000000000000000000000000000000000000000000600052602260045260246000fd5b600060028204905060018216806119f857607f821691505b60208210811415611a0c57611a0b6119b1565b5b50919050565b6000611a1d82611298565b91506000821415611a3157611a306118e3565b5b60018203905091905056fea2646970667358221220f19778c749d650ccdfe30ada19c5cc0bc734f4546cd147a16e447d0605e004aa64736f6c63430008090033",
  "immutableReferences": {},
  "source": "// SPDX-License-Identifier: MIT\npragma solidity >=0.4.22 <0.9.0;\n\ncontract ManagmentDappContract {\n    event personAdded(\n        uint256 _id,\n        uint256 _age,\n        uint256 _level,\n        address _address,\n        string _fullName,\n        string _gender,\n        string _role,\n        bool _isWorker,\n        bool _isRegistered\n    );\n    event workerHired(uint256 _id);\n    event workedFired(uint256 _id);\n    event workerChangedRole(uint256 _id);\n    event workerPromoted(uint256 _id);\n\n    struct Person {\n        uint256 id;\n        uint256 age;\n        uint256 level;\n        address addr;\n        string fullName;\n        string gender;\n        string role;\n        bool isWorker;\n        bool isRegistered;\n    }\n\n    address owner;\n    uint256 public personCount = 0;\n    uint256 public pendingWorkersCount = 0;\n    uint256 public workersCount = 0;\n\n    constructor() {\n        owner = msg.sender;\n    }\n\n    modifier _onlyOwner() {\n        require(owner == msg.sender);\n        _;\n    }\n\n    mapping(uint256 => Person) public persons;\n    mapping(address => uint256) public addressToId; \n    mapping(uint256 => Person) public pendingWorkers;\n\n    function register(\n        uint256 _age,\n        string memory _fullName,\n        string memory _gender,\n        string memory _role\n\n    ) public {\n        require(\n            !(pendingWorkers[addressToId[msg.sender]].addr == msg.sender), \n            \"User already registered\"\n            );\n\n        pendingWorkers[personCount] = Person(\n            personCount,\n            _age,\n            1,\n            msg.sender,\n            _fullName,\n            _gender,\n            _role,\n            false,\n            true\n        );\n\n        emit personAdded(\n            personCount,\n            _age,\n            0,\n            msg.sender,\n            _fullName,\n            _gender,\n            _role,\n            false,\n            true\n        );\n\n        addressToId[msg.sender] = personCount;\n        personCount++;\n        pendingWorkersCount++;\n    }\n\n    function hireWorker(uint256 _id) public _onlyOwner {\n        pendingWorkers[_id].isWorker = true;\n        persons[_id] = pendingWorkers[_id];\n        delete pendingWorkers[_id];\n        pendingWorkersCount--;\n        workersCount++;\n    }\n\n    function firedWorker(uint256 _id) public _onlyOwner {\n        delete persons[_id];\n        workersCount--;\n    }\n\n    function changeRoleOfWorker(uint256 _id, string memory _newRole)\n        public\n        _onlyOwner\n    {\n        persons[_id].role = _newRole;\n    }\n\n    function promoteWorker(uint256 _id) public _onlyOwner {\n        if (persons[_id].level < 2) {\n            persons[_id].level = persons[_id].level + 1;\n        }\n    }\n    \n    function getIsRegistered() public view returns(bool){\n        if(pendingWorkers[addressToId[msg.sender]].addr == msg.sender) {\n            return pendingWorkers[addressToId[msg.sender]].isRegistered;\n        }\n        return false;\n    }\n\n    function getAddressToId() public view returns(uint) {\n        return addressToId[msg.sender];\n    }\n\n    function getPendingWorkersCount() public view returns(uint) {\n        return pendingWorkersCount;\n    }\n\n    function getWorkersCount() public view returns(uint) {\n        return workersCount;\n    }\n}\n",
  "sourcePath": "C:\\Users\\Mariusz\\Documents\\GitHub\\managment-dapp-contracts\\contracts\\ManagmentDappContract.sol",
  "compiler": {
    "name": "solc",
    "version": "0.8.9+commit.e5eed63a.Emscripten.clang"
  },
  "schemaVersion": "3.4.3",
  "updatedAt": "2021-12-31T14:26:45.834Z",
  "networkType": "ethereum",
  "devdoc": {
    "kind": "dev",
    "methods": {},
    "version": 1
  },
  "userdoc": {
    "kind": "user",
    "methods": {},
    "version": 1
  }
}