{
  "contractName": "ManagmentDappContract",
  "abi": [
    {
      "inputs": [],
      "stateMutability": "nonpayable",
      "type": "constructor"
    },
    {
      "anonymous": false,
      "inputs": [
        {
          "indexed": false,
          "internalType": "uint256",
          "name": "_id",
          "type": "uint256"
        },
        {
          "indexed": false,
          "internalType": "uint256",
          "name": "_age",
          "type": "uint256"
        },
        {
          "indexed": false,
          "internalType": "uint256",
          "name": "_level",
          "type": "uint256"
        },
        {
          "indexed": false,
          "internalType": "address",
          "name": "_address",
          "type": "address"
        },
        {
          "indexed": false,
          "internalType": "string",
          "name": "_fullName",
          "type": "string"
        },
        {
          "indexed": false,
          "internalType": "string",
          "name": "_gender",
          "type": "string"
        },
        {
          "indexed": false,
          "internalType": "string",
          "name": "_role",
          "type": "string"
        },
        {
          "indexed": false,
          "internalType": "bool",
          "name": "_isWorker",
          "type": "bool"
        },
        {
          "indexed": false,
          "internalType": "bool",
          "name": "_isRegistered",
          "type": "bool"
        }
      ],
      "name": "personAdded",
      "type": "event"
    },
    {
      "anonymous": false,
      "inputs": [
        {
          "indexed": false,
          "internalType": "uint256",
          "name": "_id",
          "type": "uint256"
        }
      ],
      "name": "workedFired",
      "type": "event"
    },
    {
      "anonymous": false,
      "inputs": [
        {
          "indexed": false,
          "internalType": "uint256",
          "name": "_id",
          "type": "uint256"
        }
      ],
      "name": "workerChangedRole",
      "type": "event"
    },
    {
      "anonymous": false,
      "inputs": [
        {
          "indexed": false,
          "internalType": "uint256",
          "name": "_id",
          "type": "uint256"
        }
      ],
      "name": "workerHired",
      "type": "event"
    },
    {
      "anonymous": false,
      "inputs": [
        {
          "indexed": false,
          "internalType": "uint256",
          "name": "_id",
          "type": "uint256"
        }
      ],
      "name": "workerPromoted",
      "type": "event"
    },
    {
      "inputs": [
        {
          "internalType": "address",
          "name": "",
          "type": "address"
        }
      ],
      "name": "addressToId",
      "outputs": [
        {
          "internalType": "uint256",
          "name": "",
          "type": "uint256"
        }
      ],
      "stateMutability": "view",
      "type": "function",
      "constant": true
    },
    {
      "inputs": [
        {
          "internalType": "uint256",
          "name": "",
          "type": "uint256"
        }
      ],
      "name": "pendingWorkers",
      "outputs": [
        {
          "internalType": "uint256",
          "name": "id",
          "type": "uint256"
        },
        {
          "internalType": "uint256",
          "name": "age",
          "type": "uint256"
        },
        {
          "internalType": "uint256",
          "name": "level",
          "type": "uint256"
        },
        {
          "internalType": "address",
          "name": "addr",
          "type": "address"
        },
        {
          "internalType": "string",
          "name": "fullName",
          "type": "string"
        },
        {
          "internalType": "string",
          "name": "gender",
          "type": "string"
        },
        {
          "internalType": "string",
          "name": "role",
          "type": "string"
        },
        {
          "internalType": "bool",
          "name": "isWorker",
          "type": "bool"
        },
        {
          "internalType": "bool",
          "name": "isRegistered",
          "type": "bool"
        }
      ],
      "stateMutability": "view",
      "type": "function",
      "constant": true
    },
    {
      "inputs": [],
      "name": "personCount",
      "outputs": [
        {
          "internalType": "uint256",
          "name": "",
          "type": "uint256"
        }
      ],
      "stateMutability": "view",
      "type": "function",
      "constant": true
    },
    {
      "inputs": [
        {
          "internalType": "uint256",
          "name": "",
          "type": "uint256"
        }
      ],
      "name": "persons",
      "outputs": [
        {
          "internalType": "uint256",
          "name": "id",
          "type": "uint256"
        },
        {
          "internalType": "uint256",
          "name": "age",
          "type": "uint256"
        },
        {
          "internalType": "uint256",
          "name": "level",
          "type": "uint256"
        },
        {
          "internalType": "address",
          "name": "addr",
          "type": "address"
        },
        {
          "internalType": "string",
          "name": "fullName",
          "type": "string"
        },
        {
          "internalType": "string",
          "name": "gender",
          "type": "string"
        },
        {
          "internalType": "string",
          "name": "role",
          "type": "string"
        },
        {
          "internalType": "bool",
          "name": "isWorker",
          "type": "bool"
        },
        {
          "internalType": "bool",
          "name": "isRegistered",
          "type": "bool"
        }
      ],
      "stateMutability": "view",
      "type": "function",
      "constant": true
    },
    {
      "inputs": [
        {
          "internalType": "uint256",
          "name": "_age",
          "type": "uint256"
        },
        {
          "internalType": "string",
          "name": "_fullName",
          "type": "string"
        },
        {
          "internalType": "string",
          "name": "_gender",
          "type": "string"
        },
        {
          "internalType": "string",
          "name": "_role",
          "type": "string"
        }
      ],
      "name": "register",
      "outputs": [],
      "stateMutability": "nonpayable",
      "type": "function"
    },
    {
      "inputs": [
        {
          "internalType": "uint256",
          "name": "_id",
          "type": "uint256"
        }
      ],
      "name": "hireWorker",
      "outputs": [],
      "stateMutability": "nonpayable",
      "type": "function"
    },
    {
      "inputs": [
        {
          "internalType": "uint256",
          "name": "_id",
          "type": "uint256"
        }
      ],
      "name": "firedWorker",
      "outputs": [],
      "stateMutability": "nonpayable",
      "type": "function"
    },
    {
      "inputs": [
        {
          "internalType": "uint256",
          "name": "_id",
          "type": "uint256"
        },
        {
          "internalType": "string",
          "name": "_newRole",
          "type": "string"
        }
      ],
      "name": "changeRoleOfWorker",
      "outputs": [],
      "stateMutability": "nonpayable",
      "type": "function"
    },
    {
      "inputs": [
        {
          "internalType": "uint256",
          "name": "_id",
          "type": "uint256"
        }
      ],
      "name": "promoteWorker",
      "outputs": [],
      "stateMutability": "nonpayable",
      "type": "function"
    },
    {
      "inputs": [],
      "name": "getIsRegistered",
      "outputs": [
        {
          "internalType": "bool",
          "name": "",
          "type": "bool"
        }
      ],
      "stateMutability": "view",
      "type": "function",
      "constant": true
    },
    {
      "inputs": [],
      "name": "getAddressToId",
      "outputs": [
        {
          "internalType": "uint256",
          "name": "",
          "type": "uint256"
        }
      ],
      "stateMutability": "view",
      "type": "function",
      "constant": true
    }
  ],
  "bytecode": "0x6080604052600060015534801561001557600080fd5b50336000806101000a81548173ffffffffffffffffffffffffffffffffffffffff021916908373ffffffffffffffffffffffffffffffffffffffff160217905550611903806100656000396000f3fe608060405234801561001057600080fd5b50600436106100a95760003560e01c806378495bf81161007157806378495bf81461015857806383a50db6146101765780638431f0901461019257806385c45b6b146101b0578063a2f9eac6146101cc578063cb0e0d7d14610204576100a9565b80633d59a0e2146100ae5780633f3fe3a5146100ca5780635c8ea64f146100e65780635dc2e6661461010257806373d4ca941461013a575b600080fd5b6100c860048036038101906100c391906112e3565b610234565b005b6100e460048036038101906100df919061139e565b61053c565b005b61010060048036038101906100fb91906113cb565b6105f3565b005b61011c6004803603810190610117919061139e565b61067a565b6040516101319998979695949392919061151a565b60405180910390f35b61014261089a565b60405161014f91906115bc565b60405180910390f35b6101606109b7565b60405161016d91906115d7565b60405180910390f35b610190600480360381019061018b919061139e565b6109bd565b005b61019a610c5c565b6040516101a791906115d7565b60405180910390f35b6101ca60048036038101906101c5919061139e565b610ca3565b005b6101e660048036038101906101e1919061139e565b610dab565b6040516101fb9998979695949392919061151a565b60405180910390f35b61021e6004803603810190610219919061161e565b610fcb565b60405161022b91906115d7565b60405180910390f35b3373ffffffffffffffffffffffffffffffffffffffff1660046000600360003373ffffffffffffffffffffffffffffffffffffffff1673ffffffffffffffffffffffffffffffffffffffff16815260200190815260200160002054815260200190815260200160002060030160009054906101000a900473ffffffffffffffffffffffffffffffffffffffff1673ffffffffffffffffffffffffffffffffffffffff161415610318576040517f08c379a000000000000000000000000000000000000000000000000000000000815260040161030f90611697565b60405180910390fd5b6040518061012001604052806001548152602001858152602001600181526020013373ffffffffffffffffffffffffffffffffffffffff1681526020018481526020018381526020018281526020016000151581526020016001151581525060046000600154815260200190815260200160002060008201518160000155602082015181600101556040820151816002015560608201518160030160006101000a81548173ffffffffffffffffffffffffffffffffffffffff021916908373ffffffffffffffffffffffffffffffffffffffff160217905550608082015181600401908051906020019061040d929190610fe3565b5060a082015181600501908051906020019061042a929190610fe3565b5060c0820151816006019080519060200190610447929190610fe3565b5060e08201518160070160006101000a81548160ff0219169083151502179055506101008201518160070160016101000a81548160ff0219169083151502179055509050507f1aa984a30282caec6e71b4306782a0b05ea5b017f0d5855a316b5c0d4fc2a65860015485600033878787600060016040516104d0999897969594939291906116fc565b60405180910390a1600154600360003373ffffffffffffffffffffffffffffffffffffffff1673ffffffffffffffffffffffffffffffffffffffff1681526020019081526020016000208190555060016000815480929190610531906117cd565b919050555050505050565b3373ffffffffffffffffffffffffffffffffffffffff1660008054906101000a900473ffffffffffffffffffffffffffffffffffffffff1673ffffffffffffffffffffffffffffffffffffffff161461059457600080fd5b60028060008381526020019081526020016000206002015410156105f057600160026000838152602001908152602001600020600201546105d59190611816565b60026000838152602001908152602001600020600201819055505b50565b3373ffffffffffffffffffffffffffffffffffffffff1660008054906101000a900473ffffffffffffffffffffffffffffffffffffffff1673ffffffffffffffffffffffffffffffffffffffff161461064b57600080fd5b80600260008481526020019081526020016000206006019080519060200190610675929190610fe3565b505050565b60046020528060005260406000206000915090508060000154908060010154908060020154908060030160009054906101000a900473ffffffffffffffffffffffffffffffffffffffff16908060040180546106d59061189b565b80601f01602080910402602001604051908101604052809291908181526020018280546107019061189b565b801561074e5780601f106107235761010080835404028352916020019161074e565b820191906000526020600020905b81548152906001019060200180831161073157829003601f168201915b5050505050908060050180546107639061189b565b80601f016020809104026020016040519081016040528092919081815260200182805461078f9061189b565b80156107dc5780601f106107b1576101008083540402835291602001916107dc565b820191906000526020600020905b8154815290600101906020018083116107bf57829003601f168201915b5050505050908060060180546107f19061189b565b80601f016020809104026020016040519081016040528092919081815260200182805461081d9061189b565b801561086a5780601f1061083f5761010080835404028352916020019161086a565b820191906000526020600020905b81548152906001019060200180831161084d57829003601f168201915b5050505050908060070160009054906101000a900460ff16908060070160019054906101000a900460ff16905089565b60003373ffffffffffffffffffffffffffffffffffffffff1660046000600360003373ffffffffffffffffffffffffffffffffffffffff1673ffffffffffffffffffffffffffffffffffffffff16815260200190815260200160002054815260200190815260200160002060030160009054906101000a900473ffffffffffffffffffffffffffffffffffffffff1673ffffffffffffffffffffffffffffffffffffffff1614156109af5760046000600360003373ffffffffffffffffffffffffffffffffffffffff1673ffffffffffffffffffffffffffffffffffffffff16815260200190815260200160002054815260200190815260200160002060070160019054906101000a900460ff1690506109b4565b600090505b90565b60015481565b3373ffffffffffffffffffffffffffffffffffffffff1660008054906101000a900473ffffffffffffffffffffffffffffffffffffffff1673ffffffffffffffffffffffffffffffffffffffff1614610a1557600080fd5b60016004600083815260200190815260200160002060070160006101000a81548160ff02191690831515021790555060046000828152602001908152602001600020600260008381526020019081526020016000206000820154816000015560018201548160010155600282015481600201556003820160009054906101000a900473ffffffffffffffffffffffffffffffffffffffff168160030160006101000a81548173ffffffffffffffffffffffffffffffffffffffff021916908373ffffffffffffffffffffffffffffffffffffffff1602179055506004820181600401908054610b039061189b565b610b0e929190611069565b506005820181600501908054610b239061189b565b610b2e929190611069565b506006820181600601908054610b439061189b565b610b4e929190611069565b506007820160009054906101000a900460ff168160070160006101000a81548160ff0219169083151502179055506007820160019054906101000a900460ff168160070160016101000a81548160ff02191690831515021790555090505060046000828152602001908152602001600020600080820160009055600182016000905560028201600090556003820160006101000a81549073ffffffffffffffffffffffffffffffffffffffff0219169055600482016000610c0f91906110f6565b600582016000610c1f91906110f6565b600682016000610c2f91906110f6565b6007820160006101000a81549060ff02191690556007820160016101000a81549060ff0219169055505050565b6000600360003373ffffffffffffffffffffffffffffffffffffffff1673ffffffffffffffffffffffffffffffffffffffff16815260200190815260200160002054905090565b3373ffffffffffffffffffffffffffffffffffffffff1660008054906101000a900473ffffffffffffffffffffffffffffffffffffffff1673ffffffffffffffffffffffffffffffffffffffff1614610cfb57600080fd5b60026000828152602001908152602001600020600080820160009055600182016000905560028201600090556003820160006101000a81549073ffffffffffffffffffffffffffffffffffffffff0219169055600482016000610d5e91906110f6565b600582016000610d6e91906110f6565b600682016000610d7e91906110f6565b6007820160006101000a81549060ff02191690556007820160016101000a81549060ff0219169055505050565b60026020528060005260406000206000915090508060000154908060010154908060020154908060030160009054906101000a900473ffffffffffffffffffffffffffffffffffffffff1690806004018054610e069061189b565b80601f0160208091040260200160405190810160405280929190818152602001828054610e329061189b565b8015610e7f5780601f10610e5457610100808354040283529160200191610e7f565b820191906000526020600020905b815481529060010190602001808311610e6257829003601f168201915b505050505090806005018054610e949061189b565b80601f0160208091040260200160405190810160405280929190818152602001828054610ec09061189b565b8015610f0d5780601f10610ee257610100808354040283529160200191610f0d565b820191906000526020600020905b815481529060010190602001808311610ef057829003601f168201915b505050505090806006018054610f229061189b565b80601f0160208091040260200160405190810160405280929190818152602001828054610f4e9061189b565b8015610f9b5780601f10610f7057610100808354040283529160200191610f9b565b820191906000526020600020905b815481529060010190602001808311610f7e57829003601f168201915b5050505050908060070160009054906101000a900460ff16908060070160019054906101000a900460ff16905089565b60036020528060005260406000206000915090505481565b828054610fef9061189b565b90600052602060002090601f0160209004810192826110115760008555611058565b82601f1061102a57805160ff1916838001178555611058565b82800160010185558215611058579182015b8281111561105757825182559160200191906001019061103c565b5b5090506110659190611136565b5090565b8280546110759061189b565b90600052602060002090601f01602090048101928261109757600085556110e5565b82601f106110a857805485556110e5565b828001600101855582156110e557600052602060002091601f016020900482015b828111156110e45782548255916001019190600101906110c9565b5b5090506110f29190611136565b5090565b5080546111029061189b565b6000825580601f106111145750611133565b601f0160209004906000526020600020908101906111329190611136565b5b50565b5b8082111561114f576000816000905550600101611137565b5090565b6000604051905090565b600080fd5b600080fd5b6000819050919050565b61117a81611167565b811461118557600080fd5b50565b60008135905061119781611171565b92915050565b600080fd5b600080fd5b6000601f19601f8301169050919050565b7f4e487b7100000000000000000000000000000000000000000000000000000000600052604160045260246000fd5b6111f0826111a7565b810181811067ffffffffffffffff8211171561120f5761120e6111b8565b5b80604052505050565b6000611222611153565b905061122e82826111e7565b919050565b600067ffffffffffffffff82111561124e5761124d6111b8565b5b611257826111a7565b9050602081019050919050565b82818337600083830152505050565b600061128661128184611233565b611218565b9050828152602081018484840111156112a2576112a16111a2565b5b6112ad848285611264565b509392505050565b600082601f8301126112ca576112c961119d565b5b81356112da848260208601611273565b91505092915050565b600080600080608085870312156112fd576112fc61115d565b5b600061130b87828801611188565b945050602085013567ffffffffffffffff81111561132c5761132b611162565b5b611338878288016112b5565b935050604085013567ffffffffffffffff81111561135957611358611162565b5b611365878288016112b5565b925050606085013567ffffffffffffffff81111561138657611385611162565b5b611392878288016112b5565b91505092959194509250565b6000602082840312156113b4576113b361115d565b5b60006113c284828501611188565b91505092915050565b600080604083850312156113e2576113e161115d565b5b60006113f085828601611188565b925050602083013567ffffffffffffffff81111561141157611410611162565b5b61141d858286016112b5565b9150509250929050565b61143081611167565b82525050565b600073ffffffffffffffffffffffffffffffffffffffff82169050919050565b600061146182611436565b9050919050565b61147181611456565b82525050565b600081519050919050565b600082825260208201905092915050565b60005b838110156114b1578082015181840152602081019050611496565b838111156114c0576000848401525b50505050565b60006114d182611477565b6114db8185611482565b93506114eb818560208601611493565b6114f4816111a7565b840191505092915050565b60008115159050919050565b611514816114ff565b82525050565b600061012082019050611530600083018c611427565b61153d602083018b611427565b61154a604083018a611427565b6115576060830189611468565b818103608083015261156981886114c6565b905081810360a083015261157d81876114c6565b905081810360c083015261159181866114c6565b90506115a060e083018561150b565b6115ae61010083018461150b565b9a9950505050505050505050565b60006020820190506115d1600083018461150b565b92915050565b60006020820190506115ec6000830184611427565b92915050565b6115fb81611456565b811461160657600080fd5b50565b600081359050611618816115f2565b92915050565b6000602082840312156116345761163361115d565b5b600061164284828501611609565b91505092915050565b7f5573657220616c72656164792072656769737465726564000000000000000000600082015250565b6000611681601783611482565b915061168c8261164b565b602082019050919050565b600060208201905081810360008301526116b081611674565b9050919050565b6000819050919050565b6000819050919050565b60006116e66116e16116dc846116b7565b6116c1565b611167565b9050919050565b6116f6816116cb565b82525050565b600061012082019050611712600083018c611427565b61171f602083018b611427565b61172c604083018a6116ed565b6117396060830189611468565b818103608083015261174b81886114c6565b905081810360a083015261175f81876114c6565b905081810360c083015261177381866114c6565b905061178260e083018561150b565b61179061010083018461150b565b9a9950505050505050505050565b7f4e487b7100000000000000000000000000000000000000000000000000000000600052601160045260246000fd5b60006117d882611167565b91507fffffffffffffffffffffffffffffffffffffffffffffffffffffffffffffffff82141561180b5761180a61179e565b5b600182019050919050565b600061182182611167565b915061182c83611167565b9250827fffffffffffffffffffffffffffffffffffffffffffffffffffffffffffffffff038211156118615761186061179e565b5b828201905092915050565b7f4e487b7100000000000000000000000000000000000000000000000000000000600052602260045260246000fd5b600060028204905060018216806118b357607f821691505b602082108114156118c7576118c661186c565b5b5091905056fea2646970667358221220ab2054b1287cd59a4d59c93d57700467c203f79d391de34672cb6a4b49dd695e64736f6c63430008090033",
  "immutableReferences": {},
  "source": "// SPDX-License-Identifier: MIT\npragma solidity >=0.4.22 <0.9.0;\n\ncontract ManagmentDappContract {\n    event personAdded(\n        uint256 _id,\n        uint256 _age,\n        uint256 _level,\n        address _address,\n        string _fullName,\n        string _gender,\n        string _role,\n        bool _isWorker,\n        bool _isRegistered\n    );\n    event workerHired(uint256 _id);\n    event workedFired(uint256 _id);\n    event workerChangedRole(uint256 _id);\n    event workerPromoted(uint256 _id);\n\n    struct Person {\n        uint256 id;\n        uint256 age;\n        uint256 level;\n        address addr;\n        string fullName;\n        string gender;\n        string role;\n        bool isWorker;\n        bool isRegistered;\n    }\n\n    address owner;\n    uint256 public personCount = 0;\n\n    constructor() {\n        owner = msg.sender;\n    }\n\n    modifier _onlyOwner() {\n        require(owner == msg.sender);\n        _;\n    }\n\n    mapping(uint256 => Person) public persons;\n    mapping(address => uint256) public addressToId; \n    mapping(uint256 => Person) public pendingWorkers;\n\n    function register(\n        uint256 _age,\n        string memory _fullName,\n        string memory _gender,\n        string memory _role\n\n    ) public {\n        require(\n            !(pendingWorkers[addressToId[msg.sender]].addr == msg.sender), \n            \"User already registered\"\n            );\n\n        pendingWorkers[personCount] = Person(\n            personCount,\n            _age,\n            1,\n            msg.sender,\n            _fullName,\n            _gender,\n            _role,\n            false,\n            true\n        );\n\n        emit personAdded(\n            personCount,\n            _age,\n            0,\n            msg.sender,\n            _fullName,\n            _gender,\n            _role,\n            false,\n            true\n        );\n\n        addressToId[msg.sender] = personCount;\n        personCount++;\n    }\n\n    function hireWorker(uint256 _id) public _onlyOwner {\n        pendingWorkers[_id].isWorker = true;\n        persons[_id] = pendingWorkers[_id];\n        delete pendingWorkers[_id];\n    }\n\n    function firedWorker(uint256 _id) public _onlyOwner {\n        delete persons[_id];\n    }\n\n    function changeRoleOfWorker(uint256 _id, string memory _newRole)\n        public\n        _onlyOwner\n    {\n        persons[_id].role = _newRole;\n    }\n\n    function promoteWorker(uint256 _id) public _onlyOwner {\n        if (persons[_id].level < 2) {\n            persons[_id].level = persons[_id].level + 1;\n        }\n    }\n    \n    function getIsRegistered() public view returns(bool){\n        if(pendingWorkers[addressToId[msg.sender]].addr == msg.sender) {\n            return pendingWorkers[addressToId[msg.sender]].isRegistered;\n        }\n        return false;\n    }\n\n    function getAddressToId() public view returns(uint) {\n        return addressToId[msg.sender];\n    }\n}\n",
  "sourcePath": "C:\\Users\\Mariusz\\Documents\\GitHub\\managment-dapp-contracts\\contracts\\ManagmentDappContract.sol",
  "compiler": {
    "name": "solc",
    "version": "0.8.9+commit.e5eed63a.Emscripten.clang"
  },
  "schemaVersion": "3.4.3",
  "updatedAt": "2021-12-28T22:44:07.180Z",
  "networkType": "ethereum",
  "devdoc": {
    "kind": "dev",
    "methods": {},
    "version": 1
  },
  "userdoc": {
    "kind": "user",
    "methods": {},
    "version": 1
  }
}